:100000000C9434000C9451000C9451000C94510049
:100010000C9451000C94AB000C9451000C945100C2
:100020000C9451000C9451000C9451000C9451000C
:100030000C9451000C9451000C9451000C945100FC
:100040000C9451000C9451000C9451000C945100EC
:100050000C9451000C9451000C9451000C945100DC
:100060000C9451000C94510011241FBECFEFD8E026
:10007000DEBFCDBF11E0A0E0B1E0EEE4F5E002C0EC
:1000800005900D92AE31B107D9F721E0AEE1B1E0B4
:1000900001C01D92A932B207E1F70E944D010C94F4
:1000A000A5020C9400004C9918C0809122019091F7
:1000B0002301019690932301809322018B3F9105A8
:1000C00020F12FEF84E694E0215080409040E1F74A
:1000D00000C0000081E090E008958091200190919F
:1000E0002101019690932101809320018B3F91057E
:1000F00078F02FEF84E694E0215080409040E1F7C3
:1001000000C0000080E090E0089580E090E0089555
:1001100080E090E008950097D9F020E030E02D9A3B
:100120004FEF50E762E0415050406040E1F700C0BF
:1001300000002D984FEF5AE663E041505040604078
:10014000E1F700C000002F5F3F4F8217930739F798
:1001500080E090E008951F920F920FB60F92112445
:100160002F933F934F935F936F937F938F939F93BF
:10017000AF93BF93EF93FF9380912401909125015A
:10018000892B09F052C00E9484028823E9F1803152
:10019000F1F480912601909127018F3F934048F41C
:1001A00080912601909127010A96909327018093D0
:1001B000260180912601909127018115944020F11C
:1001C0008AEF93E090932701809326011DC080322F
:1001D000D9F48091260190912701029748F08091EF
:1001E0002601909127010A97909327018093260179
:1001F0008091260190912701892B31F481E090E0D4
:1002000090932701809326018091260190912701E8
:100210009093890080938800809126019091270116
:1002200090938B0080938A0027C080912401909145
:100230002501019709F50E9484028823E9F08031A5
:1002400051F4809100019091010102969093010177
:100250008093000111C0803279F480910001909167
:100260000101892B49F080910001909101010297D1
:100270009093010180930001FF91EF91BF91AF91A5
:100280009F918F917F916F915F914F913F912F91AE
:100290000F900FBE0F901F901895219A229A85B14A
:1002A000866085B92FEF87EA91E621508040904023
:1002B000E1F700C000000E94A102259A4C990FC0EE
:1002C00080911E0190911F01019690931F018093D0
:1002D0001E01EFE9FFE03197F1F700C000008091C7
:1002E0001E0190911F018536910540F32D9AFFEF75
:1002F00023ED80E3F15020408040E1F700C0000092
:100300002D980E945E020E947402789481E090E031
:10031000909389008093880090938B0080938A004B
:100320009FEFE3EDF0E39150E040F040E1F700C0D3
:10033000000008E810E0CAE8D0E00F2EF8E9EF2E40
:10034000F3E0FF2EF02D0E945300892B49F02FEF90
:1003500084E39CE0215080409040E1F700C0000021
:100360008091240190912501039720F0109225019E
:1003700010922401809124019091250181309105F2
:1003800009F451C010F10297F1F683E090E00E9469
:100390008B00F801F182E082F982E8820E9453002A
:1003A000892BE1F38091240190912501019690938E
:1003B000250180932401FFEF26E781E0F1502040E2
:1003C0008040E1F700C00000BECF81E090E00E94D5
:1003D0008B0081E090E0909327018093260180912B
:1003E000260190912701F801918380838091260155
:1003F00090912701998388830E945300892BE1F310
:10040000809124019091250101969093250180937C
:100410002401FFEF26E781E0F15020408040E1F722
:1004200000C0000090CF82E090E00E948B009FEF20
:10043000E7EEF3E09150E040F040E1F700C000004B
:1004400026C02091000130910101809126019091F8
:100450002701820F931F909327018093260180919B
:100460002601909127018115944020F010922701D8
:10047000109226018091260190912701F801918325
:1004800080838091260190912701998388830E941F
:100490005300892BB1F2809124019091250101969E
:1004A0009093250180932401FFEF26E781E0F1502E
:1004B00020408040E1F700C0000045CF219A229AF9
:1004C000E0E8F0E08081806C8083808180638083BD
:1004D000808183608083E1E8F0E0808188608083B0
:1004E00080818160808308958BB18C608BB910927C
:1004F0002801E8E6F0E0808184608083EDE6F0E0AA
:1005000080818C608083089529B139B1E091280100
:10051000EF70F0E032FB882780F990E0880F991F98
:1005200023FB992790F9892BEE0FFF1FEE0FFF1F7A
:10053000EE5FFE4FE80FF11D8081809328018073EC
:0E05400008958AB18AB95C9A0895F894FFCFA5
:10054E003200000204000300011003020000030247
:0E055E0001000600040006050020060504004A
:00000001FF
